{
  "_format": "hh-sol-artifact-1",
  "contractName": "DCAProtocol",
  "sourceName": "contracts/TimeLock.sol",
  "abi": [
    {
      "inputs": [
        {
          "internalType": "address",
          "name": "",
          "type": "address"
        }
      ],
      "name": "balances",
      "outputs": [
        {
          "internalType": "uint256",
          "name": "",
          "type": "uint256"
        }
      ],
      "stateMutability": "view",
      "type": "function"
    },
    {
      "inputs": [],
      "name": "deposit",
      "outputs": [],
      "stateMutability": "payable",
      "type": "function"
    },
    {
      "inputs": [],
      "name": "getBal",
      "outputs": [
        {
          "internalType": "uint256",
          "name": "",
          "type": "uint256"
        }
      ],
      "stateMutability": "view",
      "type": "function"
    },
    {
      "inputs": [
        {
          "internalType": "uint256",
          "name": "_amount",
          "type": "uint256"
        }
      ],
      "name": "withdraw",
      "outputs": [],
      "stateMutability": "nonpayable",
      "type": "function"
    }
  ],
  "bytecode": "0x608060405234801561001057600080fd5b5061061b806100206000396000f3fe60806040526004361061003f5760003560e01c806325caa2621461004457806327e235e31461006f5780632e1a7d4d146100ac578063d0e30db0146100d5575b600080fd5b34801561005057600080fd5b506100596100df565b60405161006691906102f5565b60405180910390f35b34801561007b57600080fd5b5061009660048036038101906100919190610373565b6100e7565b6040516100a391906102f5565b60405180910390f35b3480156100b857600080fd5b506100d360048036038101906100ce91906103cc565b6100ff565b005b6100dd610285565b005b600047905090565b60006020528060005260406000206000915090505481565b806000803373ffffffffffffffffffffffffffffffffffffffff1673ffffffffffffffffffffffffffffffffffffffff168152602001908152602001600020541015610180576040517f08c379a000000000000000000000000000000000000000000000000000000000815260040161017790610456565b60405180910390fd5b806000803373ffffffffffffffffffffffffffffffffffffffff1673ffffffffffffffffffffffffffffffffffffffff16815260200190815260200160002060008282546101ce91906104a5565b9250508190555060003373ffffffffffffffffffffffffffffffffffffffff16826040516101fb90610530565b60006040518083038185875af1925050503d8060008114610238576040519150601f19603f3d011682016040523d82523d6000602084013e61023d565b606091505b5050905080610281576040517f08c379a000000000000000000000000000000000000000000000000000000000815260040161027890610591565b60405180910390fd5b5050565b346000803373ffffffffffffffffffffffffffffffffffffffff1673ffffffffffffffffffffffffffffffffffffffff16815260200190815260200160002060008282546102d391906105b1565b92505081905550565b6000819050919050565b6102ef816102dc565b82525050565b600060208201905061030a60008301846102e6565b92915050565b600080fd5b600073ffffffffffffffffffffffffffffffffffffffff82169050919050565b600061034082610315565b9050919050565b61035081610335565b811461035b57600080fd5b50565b60008135905061036d81610347565b92915050565b60006020828403121561038957610388610310565b5b60006103978482850161035e565b91505092915050565b6103a9816102dc565b81146103b457600080fd5b50565b6000813590506103c6816103a0565b92915050565b6000602082840312156103e2576103e1610310565b5b60006103f0848285016103b7565b91505092915050565b600082825260208201905092915050565b7f4e6f7420656e6f75676820657468657200000000000000000000000000000000600082015250565b60006104406010836103f9565b915061044b8261040a565b602082019050919050565b6000602082019050818103600083015261046f81610433565b9050919050565b7f4e487b7100000000000000000000000000000000000000000000000000000000600052601160045260246000fd5b60006104b0826102dc565b91506104bb836102dc565b92508282039050818111156104d3576104d2610476565b5b92915050565b600081905092915050565b7f53656e7400000000000000000000000000000000000000000000000000000000600082015250565b600061051a6004836104d9565b9150610525826104e4565b600482019050919050565b600061053b8261050d565b9150819050919050565b7f6661696c656420746f2073656e64204554480000000000000000000000000000600082015250565b600061057b6012836103f9565b915061058682610545565b602082019050919050565b600060208201905081810360008301526105aa8161056e565b9050919050565b60006105bc826102dc565b91506105c7836102dc565b92508282019050808211156105df576105de610476565b5b9291505056fea2646970667358221220066e2b598c34e44de682b4b48b9278552387b5720dc934835896bfcc97ffa1c064736f6c63430008100033",
  "linkReferences": {},
  "deployedLinkReferences": {}
}